:020000040800F2
:1000000038050020B5150008570A0008590A0008ED
:100010005B0A00085D0A00085F0A00080000000093
:10002000000000000000000000000000610A00085D
:10003000630A000800000000650A0008670A00085B
:10004000D9150008DD150008E1150008E5150008C0
:10005000E9150008ED150008F1150008F515000870
:10006000F9150008FD15000801160008051600081E
:10007000091600080D1600081116000815160008CC
:10008000191600081D1600082116000800000000BF
:10009000000000000000000000000000251600081D
:1000A000291600082D16000831160008351600081C
:1000B000391600083D1600084116000845160008CC
:1000C000491600084D16000851160008551600087C
:1000D000591600085D1600086116000800000000AF
:1000E00065160008691600086D160008000000007B
:1000F0000000000000000000000000007116000871
:100100000000000075160008791600087D1600082A
:1001100000000000000000000000000000000000DF
:100120008116000885160008891600088D1600083B
:100130009116000800000000000000000000000010
:1001400000000000000000000000000095160008FC
:10015000991600089D160008A1160008A5160008AB
:10016000A9160008AD1600080000000000000000FD
:10017000000000000000000000000000000000007F
:1001800000000000B11600080000000000000000A0
:10019000B51600082DE9F04F80460FF2847095B037
:1001A00092461D46D0E90023CDE9132303AE00207B
:1001B0000391B0610DF1340900E0A2440020ADF8D4
:1001C000020013AB4FF0FF3251460DF1020000F078
:1001D000B3FB0446012C05DA9AF80000441EA44142
:1001E000E043C40FBDF8020025280CBFA4F1010BA9
:1001F000A346BBF1010F0EDB574617F8011B03980E
:10020000C0470390002800F0CF81B069401CBBF1CB
:10021000010BB061F1D1BDF80200252804D1002006
:10022000F0603061706105E00028C6D1B069BDE1C1
:1002300040F001001AF8011F2029F9D023290DD020
:100240002B2904D02D2906D030290AD00CE040F00B
:10025000020080B2EEE740F00400FAE740F0080048
:10026000F7E740F01000F4E72A290FD12968296048
:1002700051F8042B2960002A326204D5514240F023
:100280000400316280B20AF1010A15E000213162F6
:100290000CE0316A6FF00043994205D001EB810315
:1002A00002EB4301303931620AF1010A9AF8002069
:1002B000A2F130010A29ECD39AF800102E2903D0BC
:1002C0004FF0FF31F16122E01AF8011F2A2908D10D
:1002D000296829600AF1010A51F8042B2960F261AA
:1002E00015E00021F1610CE0F1696FF000439942E3
:1002F00005D001EB810302EB43013039F1610AF1D2
:10030000010A9AF80020A2F130010A29ECD3B08446
:100310000FF214609AF8001000F01EFB08B11AF8F2
:10032000010B8DF832009DF83200682804BF9AF85E
:100330000000682804D162208DF832000AF1010A19
:100340000DA8B0601AF8014B252C13D0582C40D0C2
:10035000632C00F09880642C18BF692C6DD06F2C32
:1003600037D0702C2BD0732C0AD0752C18BF782C5A
:100370002FD0ABE00120F06025208DF83400B0E0F4
:100380009DF832006C282868286014D050F8044B7F
:1003900028607460F769002F04D5204600F0FEFA4B
:1003A000074606E03A460021204600F023FB00B154
:1003B000071B376195E050F8042B28607FE0286820
:1003C000286050F8041B286002910DA87060782105
:1003D00055E09DF832206C2A0DD0712A18BF6A2A88
:1003E00009D12868C01D20F007032B60D3E9000164
:1003F00008332B6004E02968296051F8040B296058
:10040000682A029002D102A8008803E0622A02D181
:1004100002A80078029096F8240000072AD50298D6
:1004200040B344F02000782824D130208DF83400E7
:1004300089F801400220F0601CE09DF83200294656
:1004400000F0B7F80028029004D5F068411CF16074
:100450002D210DE0B08C810704D5F068411CF160BE
:100460002B2105E0C00705D5F068411CF160202173
:1004700000F80910F1680DA808187060214602A85C
:1004800000F0D0F92DE09DF832006C2809D0012051
:10049000F0602868286050F8041B28608DF834103C
:1004A0001FE02868286001AA50F8041B2860ADF8F6
:1004B00004100020ADF806004FF0FF30F06102A9F3
:1004C000404600F09CF800280BD56DE00120F0605C
:1004D00025208DF8340024B1F068411CF16000F84B
:1004E0000940306AF168401A7169401A3169441A4A
:1004F00096F8240040070FD420208DF80000002734
:1005000008E0012300AA02A9404600F0F2F9002801
:100510004AD17F1CA742F4DBF7680DF1340B0AE0E7
:100520001BF8011B0398C047039000283CD0B0691A
:10053000401CB0617F1E002FF2D130208DF80000EA
:100540004FF0000B776908E0012300AA02A940469A
:1005500000F0CFF940BB0BF1010BBB45F4DB376971
:10056000D6F804B009E01BF8011B0398C0470390BC
:10057000D0B1B069401CB0617F1E002FF3D196F856
:10058000240040077FF51AAE20208DF8000000E01F
:100590007F1CA742BFF612AE012300AA02A9404663
:1005A00000F0A7F90028F3D04FF0FF3015B0BDE8F8
:1005B000F08F622815D068280CD06C2818BF7428DA
:1005C00016D07A2814D10A680A6052F8040B0A601F
:1005D000002170470A680A6052F8040B0A6000B2F2
:1005E0000BE00A680A6052F8040B0A6040B204E0AB
:1005F0000A680A6052F8040B0A60C11770472DE9B7
:10060000F44F0D4694B0D5F820A0BAF1000F804603
:1006100048BF6FF0004A00F019FA696A401801906B
:100620000FF20C30D0E90023CDE9022395F8280021
:10063000400702D40198412805D240200DF110094D
:100640000190002607E000F00FFA5FEA0009F8D1F8
:10065000AAE7AAEB040ABAF1010FC0F28B80149842
:10066000018802AA0DF1010000F056FA00280446A4
:1006700000F18E801498008810B9641E00F1888003
:10068000A24577DB286901992218914260D26E62F7
:100690004042A969401A6969461A95F8280040073E
:1006A0000FD420208DF80000002708E0012300AAC5
:1006B0002946404600F01DF9002869D17F1CB74249
:1006C000F4DB2F69CB460AE01BF8011B6868C047C2
:1006D000686000285CD0E869401CE8617F1E002F3C
:1006E000F2D130208DF800004FF0000BAF6909E027
:1006F000012300AA2946404600F0FBF8002847D114
:100700000BF1010BBB45F3DB6F69D5F808B009E0CD
:100710001BF8011B6868C0476860C8B3E869401CE3
:10072000E8617F1E002FF3D195F8280040070DD512
:1007300020208DF8000007E0012300AA294640464A
:1007400000F0D7F820BB7F1CB742F5DB00262E61F6
:10075000224628690DF10101484400F0EBF92869AF
:10076000201828611498801C1490801E008800288E
:100770007FF46FAF686A2969401AA969401A6969EC
:10078000A0EB010A95F82800400710D400240CE0E3
:100790004FF0FF363EE068682021C04700286860BF
:1007A000F6D0E869401CE861641C5445F3DB2B6912
:1007B0004A462946404600F09CF80028E8D1AC693A
:1007C000002709E068683021C04700286860DFD052
:1007D000E869401CE8617F1CA742F3DB6B69AA68EB
:1007E0002946404600F085F80028D1D195F8280028
:1007F00040070DD5002409E068682021C047002883
:100800006860C5D0E869401CE861641C5445F3DBAE
:100810002E616E6204A881451CBF484600F0C6F9EF
:100820003046C3E6F0B4C2686F2908BF082405D07B
:1008300041F02003782B14BF0A24102418230668E3
:10084000642918BF6929374602D1002E48BF7F426C
:100850005FB9056A4DB9082C27D190F8281009070F
:1008600023D530211723D1751FE0B7FBF4F604FB25
:10087000167730375D1EFFB23A2FA4BFA1F1510C9D
:100880006744AF542B46370003D085689E18B542A5
:10089000EBD3082C09D190F82810090705D5995CED
:1008A000302902D05B1E30219954C3F118014161F7
:1008B0009A188260026A914208DA511A81614FF6F1
:1008C000EF72018D11400185F0BC7047002A0ED5F2
:1008D00090F8282002F01402102A08D1426A036915
:1008E000D21A8369D21A531A012BA8BF8361F0BCB4
:1008F0007047F8B504460D4616461F46002004E032
:10090000E869401CE8617F1E002047B116F8011B12
:100910006868A04768600028F2D14FF0FF30F2BD50
:100920000000000000000000686C747A4C000000B9
:100930000000000000000000F8B504460D46164611
:100940001F4600F073F93B4632462946204601B067
:10095000BDE8F04000F081B90278C9B28A421AB10C
:100960001CBF10F8012FF9E718BF0020704710B422
:1009700050F8041B81B102681218001D50F8043BA6
:10098000DC0744BFA9F10104E31852F8044B43F813
:10099000044B091FF9D1EBE710BC704700F10103CC
:1009A000810704D010F8011B89B18107FAD10268D0
:1009B000B2F10131914311F0803F04BF50F8042F90
:1009C000F6E710F8011B11B110F8011BFBE7C01A84
:1009D000704750F8041B61B150F8042BD30744BF93
:1009E000A9F101039A180023091F42F8043BFAD128
:1009F000EFE77047C9B2830706D0521E22D310F822
:100A0000013B9942F7D11FE0083A13D302F10402E7
:100A100041EA012141EA014150F8043B121F21BF84
:100A20004B40A3F1013C2CEA030C1CF0803FF3D0B7
:100A3000C9B2001F083210F8013B521E28BF91EACC
:100A4000030FF8D818BF0120401E704780B500F092
:100A5000EDF8012002BD7047FEE7FEE7FEE7FEE786
:100A6000704770477047704770B5054605F10F0035
:100A7000C408E400C046C046A54232D2082C04D2C5
:100A8000082402E0083000F091F8224802681100C2
:100A90000CD1011D0A6802B31368A34238BF111DAF
:100AA000F8D310E01D68A5420DD2191D0B68002B6C
:100AB000F8D11268011D00E0191D0B6893420CD09B
:100AC0001D68A542F8D361B10D682A68A2F1080338
:100AD000A3420AD26A680A600FE000F0E1F8002839
:100AE000D0D1C046C046002070BD63190B60121BF8
:100AF0006E685E600B681A602C60096800291DBF73
:100B00004A68002A091D00210160C046C04605F15F
:100B1000080070BD2801002070B504460D46164639
:100B200000F084F8324629462046BDE8704000F0C7
:100B300087B8000062B38B0708D0521E11F8013B42
:100B400000F8013B00F024808B07F6D1830740F0CA
:100B5000208000BF103A07D330B4B1E83810103A03
:100B6000A0E83810F9D230BC530724BFB1E8081010
:100B7000A0E8081044BF51F8043B40F8043BD207FA
:100B800024BF31F8022B20F8022B44BF0B780370EE
:100B90007047083A07D3B1E80810083A40F8043B18
:100BA00040F804CBF7D25307E4E7000000B97047E0
:100BB00038B5A0F108042068082833D310F0070FD7
:100BC00030D1C046C0461848416809B18C4203D2B2
:100BD0006160446017E019464B680BB1A342FAD339
:100BE0000B685D18AC421BD3A54204D12268D21811
:100BF0000A600C4607E04A681AB123681B199A423A
:100C00000ED362604C60616851B1226813198B4247
:100C100006D100230360086880182060486860607F
:100C2000C046C04631BD00002801002080B5DFF875
:100C30000C0000F04BF8806902BD000008000020A5
:100C400030B430B90FF24800D0E90045C2E90045A0
:100C50001BE00170012030BC704730B431B90FF295
:100C60003800D0E90045C3E900450EE01AB930BCB0
:100C70006FF00100704708B10A7802800978481EB9
:100C8000804130BCC043C00F7047002030BC70476B
:100C90000000000000000000000000000000000054
:100CA0000749086808B1002070470648C008C0001E
:100CB00008600549C908C900091A0160704700BFEA
:100CC000300100203F050020380700207047000059
:100CD00080B57548006850F4700073490860734827
:100CE000006850F0010071490860002070490860F8
:100CF0006E4800686F4908406C4908606E486F494B
:100D000008606A48006830F4802068490860002064
:100D10006B49086000F062F85FF0006069490860A4
:100D200001BDF0B400200021022200230224604E05
:100D3000366816F00C0630000600002E04D0042E93
:100D400006D0082E08D037E05F4E604F3E6036E098
:100D50005F4E5E4F3E6032E0584E3668C6F38056B6
:100D60003300564E366816F03F063400534E366850
:100D7000C6F388163500002B09D0564EB6FBF4F6A4
:100D80004E4F3F68C7F388177E43310008E04E4E50
:100D9000B6FBF4F6494F3F68C7F388177E4331002E
:100DA000464E3668C6F30146761C76003200B1FB2B
:100DB000F2F6464F3E6002E0434E444F3E603C4EEA
:100DC0003668454FC6F30316F65D30003F4E366871
:100DD0003700C7403D4E3760F0BC704782B00020FE
:100DE0000190002000903148006850F480302F4975
:100DF00008602E48006810F4003000900198401CF4
:100E000001900098002803D10198B0F5A04FF0D1CF
:100E100026480068800302D50120009001E00020F0
:100E20000090009801283CD12C48006850F0805078
:100E30002A4908602A48006850F440402849086060
:100E40001B4800681A49086019480068184908607A
:100E50001748006850F48050154908602148174928
:100E600008601248006850F08070104908600F4810
:100E700000688001FBD540F202701B4908600C48F5
:100E80000068800880000A4908600948006850F03E
:100E90000200074908600648006810F00C000828A6
:100EA000F9D102B07047000088ED00E00038024040
:100EB00008380240FFFFF6FE1030002404380240DC
:100EC0000C38024008ED00E00024F400D4000020BB
:100ED00040787D0100127A00C400002040380240B2
:100EE0000070004008544107003C02406549096811
:100EF000C9070BD564490968C90707D55FF0604188
:100F000009680029FAD05FF060410870704700B5A9
:100F100087B05FF4E13002900020ADF80C000020B3
:100F2000ADF80E000020ADF810000020ADF8140060
:100F30000820ADF812000121012000F049F901213B
:100F40005FF4003000F053F9072202214F4800F00F
:100F5000C2F9072203214D4800F0BDF900208DF8A9
:100F6000060001208DF8070002208DF804000420FF
:100F7000009002208DF8050000A9444800F056F9C1
:100F800000208DF8060001208DF8070002208DF862
:100F900004000820009002208DF8050000A93B48BD
:100FA00000F044F902A93A4800F0C2F9012138489A
:100FB00000F03CFA4FF48070009002208DF804009D
:100FC00000208DF8060003208DF8050000208DF824
:100FD000070000A92D4800F029F9002208212B481C
:100FE00000F079F95FF0C0615FF4C00000F058F8DC
:100FF00007B000BD00B583B000200190FFF791FE5F
:1010000020480068C0070FD51F480068C0070BD5EF
:101010001C48006850F001001A4908601A4800682E
:1010200050F0010018490860FFF771FF194800F0FF
:101030001FFA194800900098411E00910028FAD12B
:101040000199481C0190154800F012FA12480090CE
:101050000098411E00910028FAD1EAE738B5040053
:101060000D002100C9B289B2094800F0EDF9402114
:10107000074800F0EDF90028F9D02000FFF736FF0F
:10108000200032BD800E00E0000E00E000000240B3
:10109000004400409414000880841E00D01500080D
:1010A0000022DFF868311B681A0032F0EC6251EA66
:1010B00000031A43DFF854311A607047F0B400217E
:1010C00000220023022400250226DFF840713F6839
:1010D00017F00C0739000F00002F04D0042F06D0A2
:1010E000082F08D03CE0DFF82C7107603BE0DFF808
:1010F0002871076037E0DFF818713F68C7F3805741
:101100003D00DFF80C713F6817F03F073E00002DEF
:101110000DD0DFF80871B7FBF6F7DFF8F4C0DCF8A4
:1011200000C0CCF3881C0CFB07F73B000CE0DFF899
:10113000E470B7FBF6F7DFF8D8C0DCF800C0CCF3FA
:10114000881C0CFB07F73B00DFF8C4703F68C7F34F
:1011500001477F1C7F003C00B3FBF4F7076002E00F
:10116000DFF8B0700760DFF8A4703F6817F0F00791
:1011700039000909DFF8A870CF5D3A000768BC465E
:101180003CFA02FCC0F804C0DFF880703F6817F436
:10119000E0573900890ADFF88870CF5D3A00476868
:1011A000BC463CFA02FCC0F808C0DFF860703F683B
:1011B00017F460473900490BDFF86470CF5D3A00DF
:1011C0004768BC463CFA02FCC0F80CC0F0BC704753
:1011D000C9B2002905D0134A12680243114B1A60A4
:1011E00004E0104A126882430E4B1A607047C9B27D
:1011F000002905D00C4A126802430B4B1A6004E028
:10120000094A12688243084B1A6070470838024046
:10121000043802400024F40040787D0100127A0076
:10122000B40000203038024040380240F0B40022C0
:101230000023002400252A00102A4AD201259540C7
:101240002B000D681D402C009C4240D105680326F0
:101250001700FFB27F00BE40B543056005680E79F8
:101260001700FFB27F00BE40354305600D79012DA8
:1012700002D00D79022D1AD1856803261700FFB21E
:101280007F00BE40B543856085684E791700FFB288
:101290007F00BE4035438560456801269640B543D2
:1012A000456045688E799640B6B235434560C5685D
:1012B00003261700FFB27F00BE40B543C560C56876
:1012C000CE791700FFB27F00BE403543C560521C87
:1012D000B2E7F0BC7047F0B400230024D2B211F0A2
:1012E0000705EDB2AD0012FA05F52B0089B2CD105D
:1012F00010EB850589B2CE1010EB8606366A0F27F3
:1013000011F0070C5FFA8CFC5FEA8C0C17FA0CF7F3
:10131000BE432E6289B2CD1010EB85052D6A1D43A8
:101320002C0089B2CD1010EB85052C62F0BC704703
:101330002DE9F04385B004000D005FF000090026A0
:1013400000275FF00008A8890028208A814639F428
:101350004059E88850EA0909A4F81090A08981460C
:10136000314810EA0909A88829890843698908438E
:1013700050EA0909A4F80C90A08A814639F4407912
:10138000A88950EA0909A4F8149000A8FFF796FE6E
:101390002348844202D02348844202D103980600A5
:1013A00001E002980600A089000408D5192000FB7E
:1013B00006F029684900B0FBF1F0070007E01920AA
:1013C00000FB06F029688900B0FBF1F007006420FB
:1013D000B7FBF0F0000181465FEA1910642101FBC0
:1013E00010708046A08900040AD55FEAC800323038
:1013F0006421B0FBF1F010F0070050EA090909E0A0
:101400005FEA081032306421B0FBF1F010F00F00F9
:1014100050EA0909A4F8089005B0BDE8F08300007F
:101420000010014000140140F3E9FFFFC9B2002998
:1014300004D0828952F40052828104E082894DF600
:10144000FF731A4082817047CA05D20D82807047AF
:101450000200002089B2B1F5007F13880B4202D050
:101460000123180001E000231800C0B270470000FB
:101470000EB400B582B003A90091024600AB012171
:10148000034878440A30FEF785FE06BC5DF810FB81
:10149000010100000A0D5553415254205072696EEB
:1014A0007466204578616D706C653A207265746170
:1014B00072676574207468652043206C696272618C
:1014C0007279207072696E74662066756E637469D5
:1014D0006F6E20746F207468652055534152540A12
:1014E0000D00000010B5074979441831064C7C44C2
:1014F000163404E00A68081D511888470146A142C5
:10150000F8D110BD2C0000004C0000004EF68851B0
:10151000CEF20001086840F470000860BFF34F8FFE
:10152000BFF36F8F4FF00070E1EE100A70470000BC
:10153000A3F4FFFF5C000000D800002000000000C2
:101540002FF4FFFFD8000000700100000000002011
:101550000000000000F00BF8002801D0FFF7C2FFE8
:101560000020C046C046FFF745FD00F002F801200C
:10157000704700F001B800000746384600F002F856
:10158000FBE700002021090326311820ABBEF9E754
:1015900038B504460D46284600F006F8A84218BFA4
:1015A0000024204632BD00000149FFF757BD00BFAF
:1015B000740000200148804701480047D10C000812
:1015C000C5150008C046C046FFF7A0FFFFF7C2FFE1
:1015D00052554E25640A0D00FFF7FEBFFFF7FEBF10
:1015E000FFF7FEBFFFF7FEBFFFF7FEBFFFF7FEBF2F
:1015F000FFF7FEBFFFF7FEBFFFF7FEBFFFF7FEBF1F
:10160000FFF7FEBFFFF7FEBFFFF7FEBFFFF7FEBF0E
:10161000FFF7FEBFFFF7FEBFFFF7FEBFFFF7FEBFFE
:10162000FFF7FEBFFFF7FEBFFFF7FEBFFFF7FEBFEE
:10163000FFF7FEBFFFF7FEBFFFF7FEBFFFF7FEBFDE
:10164000FFF7FEBFFFF7FEBFFFF7FEBFFFF7FEBFCE
:10165000FFF7FEBFFFF7FEBFFFF7FEBFFFF7FEBFBE
:10166000FFF7FEBFFFF7FEBFFFF7FEBFFFF7FEBFAE
:10167000FFF7FEBFFFF7FEBFFFF7FEBFFFF7FEBF9E
:10168000FFF7FEBFFFF7FEBFFFF7FEBFFFF7FEBF8E
:10169000FFF7FEBFFFF7FEBFFFF7FEBFFFF7FEBF7E
:1016A000FFF7FEBFFFF7FEBFFFF7FEBFFFF7FEBF6E
:1016B000FFF7FEBFFFF7FEBF0000000000000000C4
:1016C000000000000000000000000000000000001A
:1016D000000000000000000000000000000000000A
:1016E00000000000000000000000000000000000FA
:1016F00000000000000000000000000000000000EA
:1017000000000000000000000000000000000000D9
:1017100000000000000000000000000000000000C9
:1017200000000000000000000000000002040101B1
:10173000D800002028010020D8000020D800002078
:10174000D8000020B1000020980000200000000018
:101750000000000000000000000000000000000089
:101760000000000000000000000000000000000079
:101770000102030401020304060708090000000037
:1017800000000000010203040607080900BD01056E
:04000005080015C515
:00000001FF
